:1013A000BABD00B3CC00D7EE00B8DF00A3BA00BFCF
:1013B000AABBFAB6AFBBAD00D3CECFB7C3FBB3C6A3
:1013C00000B5D8D0C4C3B0CFD5BCC700C4E3B9D230
:0C13D000C1CB00B0B4BCFCD6D8C0B40047
:0414C700022E0000F1
:0914A000EFD39D400122AF0522AB
:0914A900EFC39D500122AF0522A2
:10130F0085085275533FE5082408F9AD49AC4AE505
:10131F0049254B14FEE54A254CFA7F301214A0AB39
:10132F0007AD04AF521214A0AC07AD06AF531214A1
:10133F00A9AE07AF01AD021214A9EBC39E5008EC82
:09134F00C39F50037F01227F00BF
:011358002272
:10126500E529D39400400575510880037551077F22
:1012750004EFC39551503774102FF8E6D395084005
:10128500037F012274302FF8E6FDC374409DFDE411
:101295009400FCE5082408FBE433FAC3ED9BEA64FB
:1012A50080F8EC64809850037F01220F80C31213ED
:0C12B5000FEFD3940040037F01227F0064
:0112C100220A
:100D6D00858A51AB8C050BE50B7002050AD3940FE8
:100D7D00E50A94274005E4F50AF50BC37421954B5C
:100D8D00FFE549C39F5019754980E551541F24084B
:100D9D00F54AEBC313541F04F54BEB540F04F54CFC
:100DAD0015490529E529D394035003020E8AE4F56C
:100DBD0029535107530307AE0AAF0B7C047DE21292
:100DCD000D18A907E4FD74112DF8E6FF74102DF828
:100DDD00A6070DBD18F0E527C394085008E5272593
:100DED0051F5288023E975F002A42408FFE435F0BD
:100DFD00FEE527D39FEE6480F8748098E5274002C6
:100E0D0080022BC39551F528E5272547FFE433FED6
:100E1D00C3EF9435EE64809480400674F82528F570
:100E2D0028E4FD74312DF8E6FF74302DF8A6070D7A
:100E3D00BD18F0E547C394085007E5472BF54880EA
:100E4D0023E975F002A42408FFE435F0FED3E5474D
:100E5D009FEE6480F8748098E54740028003255129
:100E6D00C39BF548E54725E0FFE433FEC3EF94351A
:0D0E7D00EE64809480400674F82548F54826
:010E8A002245
:10105D0078517C007D007B007A0079497E007F0409
:10106D00120CAC78557C007D007B007A0079087EEF
:10107D00007F04120CAC755900755A00755B107524
:10108D005C00755D00755E3085295F1206D0755563
:10109D00FF7556137557A0E4FBFD7F011211FD7509
:1010AD0055FF7556137557A37B10E4FD7F01121183
:1010BD00FD850A54850B55755604E4FB7D027F01B1
:1010CD00120F857555FF7556137557A6E4FB7D04F4
:1010DD007F011211FD7555FF7556137557A97B10BC
:1010ED007D047F011211FD852E54852F55755604F3
:0910FD00E4FB7D067F01020F8572
:10146B00E4F589758C7D758A19D2A9D2AFD28C22FD
:0D1489007580FF7590FF75A0FF75B0FF2204
:100E8B00E4FF1214087555FF7556137557B87B1090
:100E9B00E4FD7F011211FD7555FF7556137557BA99
:100EAB007B20E4FD7F011211FD7555FF75561375FF
:100EBB0057BC7B30E4FD7F011211FD7555FF755654
:100ECB00137557BEE4FBFD7F021211FD7555FF75BF
:100EDB0056137557AC7B10E4FD7F021211FD75554F
:100EEB00FF7556137557C17B207D037F011211FDD2
:100EFB007555FF7556137557C37B307D037F0112F4
:100F0B0011FD7555FF7556137557C5E4FB7D037FB2
:100F1B00021211FD7555FF7556137557C77B107D62
:100F2B00037F021211FD7555FF7556137557C97B5B
:100F3B00207D037F021211FDE4F55174FFFFFE12B9
:100F4B0014960551E551C3941440F0E4F508F509E6
:100F5B00F50AF50BF529F55174102551F8E4F674E3
:100F6B00302551F8E4F60551E551B418EB754B08F3
:090F7B00754C08754A2075498087
:010F8400224A
:100A2600E4F54FF5501214891213DCE4FF12140892
:100A36007555FF7556137557AF7B207D037F0112E1
:100A460011FD7555FF7556137557B17B307D037FC4
:100A5600011211FD7555FF7556137557B3E4FB7DED
:100A6600037F021211FD7555FF7556137557B57B39
:100A7600107D037F021211FDE4F54DF54E74FFFF64
:100A8600FE121496054EE54E7002054DC39405E51B
:100A96004D940040E8120E8B12146BE50F64016052
:100AA60003020B70F50F121265EFD3940050030288
:100AB6000B6D7555FF7556137557CC7B107D037FEF
:100AC600021211FD7555FF7556137557CE7B207DA5
:100AD600037F021211FD7555FF7556137557D07BAE
:100AE600307D037F021211FDC3E52F950BE52E9590
:100AF6000A5006850A2E850B2FE4F54DF54E74FF38
:100B0600FFFE121496054EE54E7002054DC3940A7B
:100B1600E54D940040E87555FF7556137557D3E4B7
:100B2600FB7D067F021211FD7555FF75561375572D
:100B3600D57B107D067F021211FD7555FF75561384
:100B46007557D77B207D067F021211FD7555FF75FF
:100B560056137557D97B307D067F021211FD20A0F2
:100B6600FD120E8B020AA1120D6DE50CB4010FE405
:100B7600F50C0509E509D394034003E4F509E50DF1
:100B8600B40106E4F50D12105DE50E640160030282
:100B96000AA1F50E20A01D0550D3E550648094826D
:100BA6005003020AA1E4F550E5087003020AA115F4
:100BB60008020AA11550C3E5506480947E400302E2
:100BC6000AA1E4F5500508E50894375003020AA186
:060BD600750837020AA1B8
:03000B000212C21C
:1012C200C0E0C0D0758C7D758A19B2A1052DE52DBF
:1012D200D394324006752D00750F01052AE52AD3F5
:1012E20094644006752A00750C01052BE52BD394F6
:1012F200004006752B00750D01052CE52CD39400DA
:0D1302004006752C00750E01D0D0D0E032F1
:10000E000000BFAABBFAB6AFBBADBABDB3CCC9FA3E
:10001E00C3FCCDF2C0EFB4A9D4BDD3CECFB7C3FBD2
:10002E00B3C6D7EEB8DFA3BAD2BBB7C9BDE1CAF823
:10003E00C4E3B9D2C1CBB0B4BCFCD6D8C0B4B5D829
:10004E00D0C4C3B0CFD5BCC7FF0121252525A5FD42
:10005E0025252525250101FFFF8090988C86838F0D
:10006E00888888888E8080FF4042424242FEFE424F
:10007E004242FEFE42424242004060301C0F0300EC
:10008E0000007F7F000000000808C8FFFFC8880836
:10009E00FEFE0202FEFE0000040703FFFF41713C5C
:1000AE000F0300003F7F7878202424E4E4242424E6
:1000BE003010FFFF10F0F000081C1F0B0C0D4F6EE0
:1000CE00341C0F23607F3F0002F2F202FAFA4AFA62
:1000DE00FA4AFAFA02F2F202007F7F202F2F24272B
:1000EE0027242F2F207F7F008080FCFEB7FDFC0889
:1000FE00E8E92BEAE808080080E07F5FC6FFFFE032
:10010E007F1F003F7F4070701012D2FEFF9191BF93
:10011E00BFA1A1A1BFBF8000040703FFFF4145445B
:10012E00447F7F44444444400080601E10101010F1
:10013E00FF12101098100000014040414141414112
:10014E007F414141416140004040A090A8A4A221BE
:10015E00A2A4A890B060200000003F0808081F006D
:10016E00FF0010301F000000000202020282FE7E1D
:10017E00222222F2F2220202004060301C0F030003
:10018E002060603F1F0000000000FFFF919191FF73
:10019E00FF919191FFFF0000404044444444447F4E
:1001AE007F44444444444040000C2C34BCAC2527CE
:1001BE0026E4EC3C342C0C044040602233131A4EDF
:1001CE00C6FF7F020202020040484848FFFF48F87F
:1001DE00F8087FFF89EBEA48607F3F607F7F424FE0
:1001EE004F4E4E47474D5E1E00000000E080622CD1
:1001FE00E0A0AEB05048D4520000784C23504C636F
:10020E00180641403C07040400000000901010D076
:10021E00305040C03C4240444040201008055F40F2
:10022E002020101F7442F108000000008040402082
:10023E00B0480C8A482838180000100808645C463C
:10024E0042454544443C06000000000040C8E85CBE
:10025E002444241088561050001008443B071013F5
:10026E000846611D03001E084040C0DF5F55D5D50E
:10027E005555555F5F40404020203F3F1515FFFF0D
:10028E006B371D1D376361200404040474745557C5
:10029E00565474740404040400FFFF013D3D2525EB
:1002AE0025253D7DC1FF7F000000000000000000FD
:1002BE0000000000000000000000363600000000C4
:1002CE0000000000000000000080808080808080A0
:1002DE008080808080C0C080000000000000000090
:1002EE0000000000000000000202020202020202F0
:1002FE0002FEFEF098080000000000000000000062
:10030E0000030F1C316178782030BCEF7310084861
:10031E0048487F7F48484808222323321212007E25
:10032E007E222222227E7E000404F4F4949494FF12
:10033E00FF949494F4F4040420203111180E07FF56
:10034E00FF060C081931301080C0F0FC6F63B89FA7
:10035E000FEAE888A83C1C0800007F7F101C0F23C2
:10036E00617F3F00031F1C08101010FFFFD058487C
:10037E0048FFFF48484848400242C3FF7F4044447C
:10038E00447F7F444444444000020202020202F2CF
:10039E00F21A0A0E06060200000000000040C0FF1E
:1003AE007F00000000000000101010FF9050988891
:1003BE0088E98E88889888000242817F0040402616
:1003CE0025180816316020004030EF28284464DCE0
:1003DE001054FF54547C100001017F215122140F40
:1003EE0014253F454545440008080AEAAAAAAAFF73
:1003FE00A9A9A9E9080808004040484B4A4A4A7F83
:10040E004A4A4A4B484040000080848494A4C4FF6A
:10041E0084C4B4948484800020201010080402FF49
:10042E000102040818301000101010FEFE5050FE8D
:10043E00FE20FFFF10F8F8102020301F1F08083F85
:10044E007F404F4F4647737000808000F0F00103ED
:10045E001E1C0840C0800000040703003F7F404080
:10046E00404040787807070200001FDFD5555555EC
:10047E0055555555D5FF3F00000000FFFF4949492E
:10048E0049494949FFFF000000FEFEFADE46607052
:10049E00584F4F587060404000FFFF0C4F47424E80
:1004AE004D67765C4F43404040414FCEC40000C282
:1004BE00C2424242427E7E000000007F7F30103FEB
:1004CE007F404040407878200000F0F80868F8F04F
:1004DE000000070F0B080F0700202030F8F800006F
:1004EE00000000000F0F00000030380888F8700080
:1004FE00000C0E0B090808000030388888F87000D0
:10050E0000060E08080F07000000F8F800E0E000F3
:10051E0000030302020F0F0200F8F8888888080013
:10052E00000808080C07030000C0E07858C88000D7
:10053E0000070F08080F070000080888E878180061
:10054E0000000E0F010000000070F8C888F870005F
:10055E0000070F08090F070000F0F80808F8F00070
:10056E000000090D0F0301001408140818185999FA
:10057E00BDE5A7BFE5A59941081C080818185898AD
:10058E00BDE5A7BFE5A5984014081408181858989B
:10059E00BCE4A7BFE4A49840081C08081818589893
:1005AE00BDE5A7BFE5A59840000103070F1F3F7FDC
:1005BE00FF0080C0E0F0F8FCFEFF0000000001002C
:1005CE00000003000000070000000F0000001F00E5
:1005DE0000003F0000007F000000FF000000FF0150
:1005EE000000FF030000FF070000FF0F0000FF1FC9
:1005FE000000FF3F0000FF7F0000FFFF0000FFFF35
:10060E000100FFFF0300FFFF0700FFFF0F00FFFFCA
:10061E001F00FFFF3F00FFFF7F00FFFFFF00FFFFF8
:10062E00FF01FFFFFF03FFFFFF07FFFFFF0FFFFFAE
:10063E00FF1FFFFFFF3FFFFFFF7FFFFFFFFF0000DA
:10064E00000000000080000000C0000000E000007C
:10065E0000F0000000F8000000FC000000FE0000AA
:10066E0000FF000080FF0000C0FF0000E0FF000060
:10067E00F0FF0000F8FF0000FCFF0000FEFF00008E
:10068E00FFFF0080FFFF00C0FFFF00E0FFFF00F054
:10069E00FFFF00F8FFFF00FCFFFF00FEFFFF00FF63
:1006AE00FFFF80FFFFFFC0FFFFFFE0FFFFFFF0FF38
:1006BE00FFFFF8FFFFFFFCFFFFFFFEFFFFFFFFFF47
:0206CE00FFFF2C
:0A149600EF1F70011E144E70F722C4
:0E147B00C290D291D292E58020E7FBC292226D
:1014590012147BC290C291C2928F80D2920000C2B4
:021469009222CD
:061441003AF583E493FF7D
:1014470012147BD290C291C2928F80D2920000C2B6
:021457009222DF
:060003004307B802145986
:0614BB004307C0021459B2
:0914B20053073F4307400214599F
:0614C10043073E0214592E
:10142700EF14600C14600E2402700ED2A6D2A5220F
:0A143700D2A6C2A522C2A6D2A522A9
:10140800121427E4FEAF06120003E4FF1214B2E43C
:0E141800FDE4FF1214470DBD40F70EBE08E7BD
:0114260022A3
:1013DC00C2A4D2A47F017E0012149612147BE4FFE7
:1013EC001214271214C1E4FF1214270F1214C1E4B3
:0C13FC00FF121427121408E4FF0214BBB7
:10135900120CD2755800F559900001120CEBFDE5FD
:1013690059FEAC06E4FBFAEB25E0FFEA33FE740E06
:101379002FF58274003EF583740193B5050AE49351
:10138900B50405AF03AE02220BBB00010AEB6448AA
:061399004A70D4E4FEFFDF
:01139F00222B
:0611FD008F528D538B544C
:10120300AB55AA56A957121359AD07AC06ED78058D
:10121300C333CE33CED8F9FDAC06AF52121427AF89
:1012230053120003AF541214B2E4FEEE2DFBE43C60
:10123300FA74562BF58274001214410EBE10ECE5BD
:101243005304FF120003AF541214B2E4FEEE2DFB5D
:10125300E43CFA74662BF58274001214410EBE103E
:01126300EC9E
:011264002267
:0E119200EA240375F008A4FB895FAD52AF514B
:0211A000AC039E
:1011A200121427AF05120003AF041214B2E4FE7545
:1011B200F010E55FA42EF582E435F0F583E5822494
:1011C200D6F582E58334041214420EBE08E1ED0422
:1011D200FF120003AF041214B2E4FE75F010E55FD3
:1011E200A42EF582E435F0F583E58224DEF582E56E
:0A11F2008334041214420EBE08E11B
:0111FC0022D0
:060F85008F518D52AA03FA
:100F8B00AE54AF557C277D10120D188C5A8D5BAE6D
:100F9B005AAF5B7C037DE8120D188F59AE54AF55D9
:100FAB007C037DE8120D188C5A8D5BAE5AAF5B7CBF
:100FBB00007D64120D188F58AE54AF557C007D64C4
:100FCB00120D188C5A8D5BAE5AAF5B7C007D0A12EA
:100FDB000D188F57AE5AAF5B7C007D0A120D18A906
:100FEB0005E55624FE601714602414603E2403703C
:100FFB0060EA240375F008A4FB895F0210591211F3
:10100B0092EA240275F008A4FB85575F8040121109
:10101B0092EA240275F008A4FB85575F12119CEA33
:10102B000475F008A4FB85585F8023121192EA2403
:10103B000275F008A4FB85575F12119CEA0475F04A
:10104B0008A4FB85585F12119CAB0285595F1211E6
:01105B009CF8
:01105C002271
:1006D000E555131313541FF563E5555407F562E50B
:1006E00052131313541FF567E5522554FFE433FEEC
:1006F000EF7803CEC313CE13D8F9F568E4F5617F24
:1007000001121427AF611200037F201214B27FFF81
:10071000121447756021E560C3943050030207D27C
:10072000E560944040030207D2E561C3956350033E
:100730000207D2E5632401FFE433FED3E5619FEEB7
:100740006480F874809840030207D2E561656370A5
:1007500045C374089562FFE49400FE74B62FF582D9
:1007600074053EF583E493FF75F010E556A425600B
:10077000F582E435F0F583E5822446F582E583349D
:1007800005F583E4935FFFAE62A806088002C333D9
:10079000D8FCF564803F75F010E556A42560F5821D
:1007A000E435F0F583E5822446F582E5833405F5EA
:1007B00083E493FFE5629005BF93FEEF5EFFC37491
:1007C000089562FEEFA806088002C313D8FCF56402
:1007D0008003E4F564E561C39404503FAD61E560D6
:1007E000255FFFE433CF24E0CF34FFFEEF7802CE65
:1007F000C313CE13D8F9AB59AA5AA95BF5828E83DD
:10080000120CEB75F004A42DF582E435F0F583E5C8
:100810008224C8F582E5833405803DAD61E560251D
:100820005FFFE433CF24E0CF34FFFEEF7802CEC386
:1008300013CE13D8F9AB5CAA5DA95EF5828E831244
:100840000CEB75F004A42DF582E435F0F583E58218
:100850002448F582E5833406F583E493F565E56085
:10086000C395514069E5512553FFE433FEC3E5606C
:100870009FEE6480F87480985054E561C39567409A
:100880004DE561D395685046E561B56714E552546E
:1008900007FF74FFA807088002C333D8FCF5668001
:1008A00030E561D39567400BE56195685005756645
:1008B000FF801EE55225545407FFC374089FFF7440
:1008C000FFA807088002C313D8FCF5668003E4F58F
:1008D00066E56445654566FF1214470560E560C33B
:1008E000944050030207167F02121427AF611200D2
:1008F00003E4FF1214B2756040E561C394045047ED
:10090000AD61E56024C0FFE434FFFEE55F7A002FAF
:10091000FFEA3EFEEF7802CEC313CE13D8F92408C7
:10092000F582E43EF583AB59AA5AA95B120CEB752C
:10093000F004A42DF582E435F0F583E58224C8F5B2
:1009400082E58334058045AD61E56024C0FFE43471
:10095000FFFEE55F7A002FFFEA3EFEEF7802CEC38E
:1009600013CE13D8F92408F582E43EF583AB5CAAD4
:100970005DA95E120CEB75F004A42DF582E435F050
:10098000F583E5822448F582E5833406F583E49314
:10099000F565E560C395514069E5512553FFE433A2
:1009A000FEC3E5609FEE6480F87480985054E56162
:1009B000C39567404DE561D395685046E561B567DD
:1009C00014E5525407FF74FFA807088002C333D808
:1009D000FCF5668030E561D39567400BE56195686D
:1009E00050057566FF801EE55225545407FFC374F9
:1009F000089FFF74FFA807088002C313D8FCF566A0
:100A00008003E4F566E5654566FF1214470560E579
:100A100060C3948050030208F90561E561C394083E
:050A200050030206FF77
:010A250022AE
:03000000021106E4
:0C110600787FE4F6D8FD75816802114D79
:100BDC00E709F608DFFA8046E709F208DFFA803EFB
:100BEC0088828C83E709F0A3DFFA8032E309F608E8
:100BFC00DFFA8078E309F208DFFA807088828C8350
:100C0C00E309F0A3DFFA806489828A83E0A3F60803
:100C1C00DFFA805889828A83E0A3F208DFFA804CDD
:100C2C0080D280FA80C680D4806980F280338010B4
:100C3C0080A680EA809A80A880DA80E280CA80331D
:100C4C0089828A83ECFAE493A3C8C582C8CCC58395
:100C5C00CCF0A3C8C582C8CCC583CCDFE9DEE78065
:100C6C000D89828A83E493A3F608DFF9ECFAA9F0E4
:100C7C00EDFB2289828A83ECFAE0A3C8C582C8CC3A
:100C8C00C583CCF0A3C8C582C8CCC583CCDFEADE53
:100C9C00E880DB89828A83E493A3F208DFF980CCB5
:100CAC0088F0EF60010E4E60C388F0ED2402B404AE
:100CBC000050B9F582EB2402B4040050AF23234555
:060CCC008223900C2C7342
:100CD200BB010689828A83E0225002E722BBFE0220
:090CE200E32289828A83E4932253
:100CEB00BB010CE58229F582E5833AF583E02250BE
:100CFB0006E92582F8E622BBFE06E92582F8E22208
:0D0D0B00E58229F582E5833AF583E4932221
:100D1800BC000BBE0029EF8DF084FFADF022E4CCBF
:100D2800F875F008EF2FFFEE33FEEC33FCEE9DEC88
:100D3800984005FCEE9DFE0FD5F0E9E4CEFD22EDCE
:100D4800F8F5F0EE8420D21CFEADF075F008EF2F18
:100D5800FFED33FD4007985006D5F0F222C398FD09
:050D68000FD5F0EA22A6
:10111200020A26E493A3F8E493A34003F68001F2C3
:1011220008DFF48029E493A3F85407240CC8C333DE
:10113200C4540F4420C8834004F456800146F6DFAD
:10114200E4800B01020408102040809014C7E47E62
:10115200019360BCA3FF543F30E509541FFEE493A2
:10116200A360010ECF54C025E060A840B8E493A369
:10117200FAE493A3F8E493A3C8C582C8CAC583CA94
:10118200F0A3C8C582C8CAC583CADFE9DEE780BE4C
:0114CB000020
:00000001FF
